:100000000C945D000C9485000C9485000C94850084
:100010000C9485000C9485000C9485000C9485004C
:100020000C9485000C9485000C9485000C9485003C
:100030000C9485000C9485000C9485000C9485002C
:100040000C941D020C9485000C948D020C94670294
:100050000C9485000C9485000C9485000C9485000C
:100060000C9485000C9485000000000024002700FB
:100070002A0000000000250028002B0004040404CE
:100080000404040402020202020203030303030342
:10009000010204081020408001020408102001021F
:1000A00004081020000000080002010000030407FB
:1000B00000000000000000000E0411241FBECFEF5E
:1000C000D8E0DEBFCDBF11E0A0E0B1E0E4EDF8E0A4
:1000D00002C005900D92AE31B107D9F721E0AEE133
:1000E000B1E001C01D92A43CB207E1F710E0CDE5FC
:1000F000D0E004C02197FE010E945D04CC35D107F9
:10010000C9F70E94BF020C9468040C94000090E0B0
:10011000FC01EC55FF4F2491FC01E057FF4F349157
:10012000FC01E458FF4FE491EE2309F43CC0222384
:1001300039F1233091F038F42130A9F0223001F563
:1001400084B58F7D12C0273091F02830A1F0243083
:10015000B9F4809180008F7D03C0809180008F77FB
:10016000809380000DC084B58F7784BD09C08091D5
:10017000B0008F7703C08091B0008F7D8093B00076
:10018000F0E0EE0FFF1FEE58FF4FA591B4919FB71F
:10019000F894611104C08C913095382302C0EC9121
:1001A0003E2B3C939FBF08953FB7F8948091230165
:1001B00090912401A0912501B091260126B5A89B1C
:1001C00005C02F3F19F00196A11DB11D3FBFBA2FE9
:1001D000A92F982F8827820F911DA11DB11DBC0149
:1001E000CD0142E0660F771F881F991F4A95D1F70E
:1001F0000895CF92DF92EF92FF920F931F93CF93C8
:10020000DF936C017A018B01C0E0D0E0CE15DF05F1
:1002100081F0D8016D918D01D601ED91FC91019095
:10022000F081E02DC6010995892B11F02196EECFC2
:100230007E01C701DF91CF911F910F91FF90EF9049
:10024000DF90CF900895089580E090E00895FC013C
:10025000538D448D252F30E0842F90E0821B930B2B
:10026000541710F0CF96089501970895FC01918DD1
:10027000828D981761F0828DDF01A80FB11D5D9608
:100280008C91928D9F5F9F73928F90E008958FEF76
:100290009FEF0895FC01918D828D981731F0828D2A
:1002A000E80FF11D858D90E008958FEF9FEF089581
:1002B000FC01918D228D892F90E0805C9F4F821BE5
:1002C00091098F739927089587E291E00E94580160
:1002D00021E0892B09F420E0822F0895FC01848D10
:1002E000DF01A80FB11DA35ABF4F2C91848D90E060
:1002F00001968F739927848FA689B7892C93A0893B
:10030000B1898C91837080648C93938D848D9813C4
:1003100006C00288F389E02D80818F7D8083089557
:10032000EF92FF920F931F93CF93DF93EC0181E045
:10033000888F9B8D8C8D981305C0E889F989808101
:1003400085FD26C0F62E0B8D10E00F5F1F4F0F733B
:100350001127E02E8C8DE8120CC00FB607FCFACFE7
:10036000E889F989808185FFF5CFCE010E946E0171
:10037000F1CF8B8DFE01E80FF11DE35AFF4FF082A4
:100380009FB7F8940B8FEA89FB89808180620AC04D
:100390009FB7F894EE89FF896083E889F9898081A5
:1003A0008370806480839FBF81E090E0DF91CF9174
:1003B0001F910F91FF90EF900895CF93DF93EC0181
:1003C000888D8823C9F0EA89FB89808185FD05C075
:1003D000A889B9898C9186FD0FC00FB607FCF5CFAF
:1003E000808185FFF2CFA889B9898C9185FFEDCFF7
:1003F000CE010E946E01E7CFDF91CF91089580E09A
:1004000090E0892B29F00E94640181110C94000076
:100410000895009769F0FC0101900020E9F73197F9
:10042000AF01481B590BBC0187E291E00C94F90025
:1004300080E090E008950E9463041F920F920FB62F
:100440000F9211242F933F938F939F93AF93BF935A
:1004500080911F0190912001A0912101B091220172
:1004600030911E0123E0230F2D3720F40196A11DAA
:10047000B11D05C026E8230F0296A11DB11D2093D2
:100480001E0180931F0190932001A0932101B0933E
:1004900022018091230190912401A0912501B09126
:1004A00026010196A11DB11D809323019093240183
:1004B000A0932501B0932601BF91AF919F918F9199
:1004C0003F912F910F900FBE0F901F9018951F9284
:1004D0000F920FB60F9211242F933F934F935F9378
:1004E0006F937F938F939F93AF93BF93EF93FF93FC
:1004F00087E291E00E946E01FF91EF91BF91AF9171
:100500009F918F917F916F915F914F913F912F912B
:100510000F900FBE0F901F9018951F920F920FB65D
:100520000F9211242F938F939F93EF93FF93E0915A
:100530003701F09138018081E0913D01F0913E0159
:1005400082FD12C09081809140018F5F8F73209156
:100550004101821751F0E0914001F0E0E95DFE4F6A
:10056000958F8093400101C08081FF91EF919F9111
:100570008F912F910F900FBE0F901F901895CF93D2
:10058000DF93CDB7DEB7A1970FB6F894DEBF0FBEED
:10059000CDBF789484B5826084BD84B5816084BD0C
:1005A00085B5826085BD85B5816085BD80916E0011
:1005B000816080936E001092810080918100826042
:1005C000809381008091810081608093810080917F
:1005D00080008160809380008091B100846080936E
:1005E000B1008091B00081608093B00080917A006A
:1005F000846080937A0080917A00826080937A0090
:1006000080917A00816080937A0080917A0080687E
:1006100080937A001092C100EAE9F0E02491E6E8C4
:10062000F0E08491882399F090E0880F991FFC01F5
:10063000E859FF4FA591B491FC01EE58FF4F859109
:1006400094918FB7F894EC91E22BEC938FBFEEE985
:10065000F0E02491EAE8F0E084918823C9F090E08A
:10066000880F991FFC01E859FF4F45915491FC01F7
:10067000EE58FF4FA591B4919FB7F894FA0180818D
:100680002095822380838C91E22FE823EC939FBFF7
:10069000E0913701F091380182E08083E0913301ED
:1006A000F09134011082E0913501F09136018FEC28
:1006B000808310923F01E0913B01F0913C0186E084
:1006C0008083E0913901F0913A01808180618083DB
:1006D000E0913901F0913A01808188608083E09156
:1006E0003901F0913A01808180688083E09139017D
:1006F000F0913A0180818F7D808390E4392E2AE049
:10070000822E912CA12CB12C30927C0080917A0009
:10071000806480937A0080917A0086FDFCCF0091FE
:1007200078008091790010E0182B82E191E00E941E
:1007300009022801012E000C6608770817FF20C067
:100740006DE287E291E00E94900122273327A90100
:10075000241935094609570919A2CE0181967C0151
:10076000CA01B901A50194010E943B04605DF70133
:1007700062937F01211531054105510589F715C0A7
:10078000A301920119A2CE0181967C01CA01B9018F
:10079000A50194010E943B04605DF70162937F0113
:1007A000211531054105510589F7C7010E9409024C
:1007B0008BE191E00E9409020B30110514F061E019
:1007C00001C060E08AE00E9487000E94D4006B01B3
:1007D0007C0184E6482E512C612C712C0E94D4009F
:1007E000DC01CB018C199D09AE09BF09883E9340FD
:1007F000A105B10598F3F1E04F1A5108610871089D
:1008000028EEC20E23E0D21EE11CF11C411451045B
:100810006104710419F70E94FF0176CFE7E2F1E06D
:100820001382128288EE93E0A0E0B0E08483958387
:10083000A683B78384E091E09183808385EC90E088
:100840009587848784EC90E09787868780EC90E09A
:10085000918B808B81EC90E0938B828B82EC90E08B
:10086000958B848B86EC90E0978B868B118E128E05
:10087000138E148E0895A1E21A2EAA1BBB1BFD0134
:100880000DC0AA1FBB1FEE1FFF1FA217B307E4076F
:10089000F50720F0A21BB30BE40BF50B661F771FC7
:1008A000881F991F1A9469F76095709580959095A7
:1008B0009B01AC01BD01CF010895EE0FFF1F059014
:1008C000F491E02D099481E090E0F8940C94680490
:0408D000F894FFCFCA
:1008D400000000009001F9002701DD0158013601F4
:0E08E4004A0150696E2041303A20000D0A0092
:00000001FF
